{
  "_format": "hh-sol-artifact-1",
  "contractName": "PhisherRegistry",
  "sourceName": "contracts/PhisherRegistry.sol",
  "abi": [
    {
      "inputs": [
        {
          "internalType": "string",
          "name": "name",
          "type": "string"
        }
      ],
      "stateMutability": "nonpayable",
      "type": "constructor"
    },
    {
      "anonymous": false,
      "inputs": [
        {
          "indexed": false,
          "internalType": "address",
          "name": "principal",
          "type": "address"
        },
        {
          "indexed": true,
          "internalType": "address",
          "name": "agent",
          "type": "address"
        }
      ],
      "name": "DelegationTriggered",
      "type": "event"
    },
    {
      "anonymous": false,
      "inputs": [
        {
          "indexed": true,
          "internalType": "string",
          "name": "entity",
          "type": "string"
        },
        {
          "indexed": false,
          "internalType": "bool",
          "name": "isMember",
          "type": "bool"
        }
      ],
      "name": "MemberStatusUpdated",
      "type": "event"
    },
    {
      "anonymous": false,
      "inputs": [
        {
          "indexed": true,
          "internalType": "address",
          "name": "previousOwner",
          "type": "address"
        },
        {
          "indexed": true,
          "internalType": "address",
          "name": "newOwner",
          "type": "address"
        }
      ],
      "name": "OwnershipTransferred",
      "type": "event"
    },
    {
      "anonymous": false,
      "inputs": [
        {
          "indexed": true,
          "internalType": "string",
          "name": "entity",
          "type": "string"
        },
        {
          "indexed": false,
          "internalType": "bool",
          "name": "isPhisher",
          "type": "bool"
        }
      ],
      "name": "PhisherStatusUpdated",
      "type": "event"
    },
    {
      "inputs": [
        {
          "components": [
            {
              "internalType": "address",
              "name": "enforcer",
              "type": "address"
            },
            {
              "internalType": "bytes",
              "name": "terms",
              "type": "bytes"
            }
          ],
          "internalType": "struct Caveat[]",
          "name": "_input",
          "type": "tuple[]"
        }
      ],
      "name": "GET_CAVEAT_ARRAY_PACKETHASH",
      "outputs": [
        {
          "internalType": "bytes32",
          "name": "",
          "type": "bytes32"
        }
      ],
      "stateMutability": "pure",
      "type": "function"
    },
    {
      "inputs": [
        {
          "components": [
            {
              "internalType": "address",
              "name": "enforcer",
              "type": "address"
            },
            {
              "internalType": "bytes",
              "name": "terms",
              "type": "bytes"
            }
          ],
          "internalType": "struct Caveat",
          "name": "_input",
          "type": "tuple"
        }
      ],
      "name": "GET_CAVEAT_PACKETHASH",
      "outputs": [
        {
          "internalType": "bytes32",
          "name": "",
          "type": "bytes32"
        }
      ],
      "stateMutability": "pure",
      "type": "function"
    },
    {
      "inputs": [
        {
          "components": [
            {
              "internalType": "address",
              "name": "delegate",
              "type": "address"
            },
            {
              "internalType": "bytes32",
              "name": "authority",
              "type": "bytes32"
            },
            {
              "components": [
                {
                  "internalType": "address",
                  "name": "enforcer",
                  "type": "address"
                },
                {
                  "internalType": "bytes",
                  "name": "terms",
                  "type": "bytes"
                }
              ],
              "internalType": "struct Caveat[]",
              "name": "caveats",
              "type": "tuple[]"
            }
          ],
          "internalType": "struct Delegation",
          "name": "_input",
          "type": "tuple"
        }
      ],
      "name": "GET_DELEGATION_PACKETHASH",
      "outputs": [
        {
          "internalType": "bytes32",
          "name": "",
          "type": "bytes32"
        }
      ],
      "stateMutability": "pure",
      "type": "function"
    },
    {
      "inputs": [
        {
          "components": [
            {
              "internalType": "string",
              "name": "name",
              "type": "string"
            },
            {
              "internalType": "string",
              "name": "version",
              "type": "string"
            },
            {
              "internalType": "uint256",
              "name": "chainId",
              "type": "uint256"
            },
            {
              "internalType": "address",
              "name": "verifyingContract",
              "type": "address"
            }
          ],
          "internalType": "struct EIP712Domain",
          "name": "_input",
          "type": "tuple"
        }
      ],
      "name": "GET_EIP712DOMAIN_PACKETHASH",
      "outputs": [
        {
          "internalType": "bytes32",
          "name": "",
          "type": "bytes32"
        }
      ],
      "stateMutability": "pure",
      "type": "function"
    },
    {
      "inputs": [
        {
          "components": [
            {
              "internalType": "bytes32",
              "name": "delegationHash",
              "type": "bytes32"
            }
          ],
          "internalType": "struct IntentionToRevoke",
          "name": "_input",
          "type": "tuple"
        }
      ],
      "name": "GET_INTENTIONTOREVOKE_PACKETHASH",
      "outputs": [
        {
          "internalType": "bytes32",
          "name": "",
          "type": "bytes32"
        }
      ],
      "stateMutability": "pure",
      "type": "function"
    },
    {
      "inputs": [
        {
          "components": [
            {
              "components": [
                {
                  "components": [
                    {
                      "internalType": "address",
                      "name": "to",
                      "type": "address"
                    },
                    {
                      "internalType": "uint256",
                      "name": "gasLimit",
                      "type": "uint256"
                    },
                    {
                      "internalType": "bytes",
                      "name": "data",
                      "type": "bytes"
                    }
                  ],
                  "internalType": "struct Transaction",
                  "name": "transaction",
                  "type": "tuple"
                },
                {
                  "components": [
                    {
                      "components": [
                        {
                          "internalType": "address",
                          "name": "delegate",
                          "type": "address"
                        },
                        {
                          "internalType": "bytes32",
                          "name": "authority",
                          "type": "bytes32"
                        },
                        {
                          "components": [
                            {
                              "internalType": "address",
                              "name": "enforcer",
                              "type": "address"
                            },
                            {
                              "internalType": "bytes",
                              "name": "terms",
                              "type": "bytes"
                            }
                          ],
                          "internalType": "struct Caveat[]",
                          "name": "caveats",
                          "type": "tuple[]"
                        }
                      ],
                      "internalType": "struct Delegation",
                      "name": "delegation",
                      "type": "tuple"
                    },
                    {
                      "internalType": "bytes",
                      "name": "signature",
                      "type": "bytes"
                    }
                  ],
                  "internalType": "struct SignedDelegation[]",
                  "name": "authority",
                  "type": "tuple[]"
                }
              ],
              "internalType": "struct Invocation[]",
              "name": "batch",
              "type": "tuple[]"
            },
            {
              "components": [
                {
                  "internalType": "uint256",
                  "name": "nonce",
                  "type": "uint256"
                },
                {
                  "internalType": "uint256",
                  "name": "queue",
                  "type": "uint256"
                }
              ],
              "internalType": "struct ReplayProtection",
              "name": "replayProtection",
              "type": "tuple"
            }
          ],
          "internalType": "struct Invocations",
          "name": "_input",
          "type": "tuple"
        }
      ],
      "name": "GET_INVOCATIONS_PACKETHASH",
      "outputs": [
        {
          "internalType": "bytes32",
          "name": "",
          "type": "bytes32"
        }
      ],
      "stateMutability": "pure",
      "type": "function"
    },
    {
      "inputs": [
        {
          "components": [
            {
              "components": [
                {
                  "internalType": "address",
                  "name": "to",
                  "type": "address"
                },
                {
                  "internalType": "uint256",
                  "name": "gasLimit",
                  "type": "uint256"
                },
                {
                  "internalType": "bytes",
                  "name": "data",
                  "type": "bytes"
                }
              ],
              "internalType": "struct Transaction",
              "name": "transaction",
              "type": "tuple"
            },
            {
              "components": [
                {
                  "components": [
                    {
                      "internalType": "address",
                      "name": "delegate",
                      "type": "address"
                    },
                    {
                      "internalType": "bytes32",
                      "name": "authority",
                      "type": "bytes32"
                    },
                    {
                      "components": [
                        {
                          "internalType": "address",
                          "name": "enforcer",
                          "type": "address"
                        },
                        {
                          "internalType": "bytes",
                          "name": "terms",
                          "type": "bytes"
                        }
                      ],
                      "internalType": "struct Caveat[]",
                      "name": "caveats",
                      "type": "tuple[]"
                    }
                  ],
                  "internalType": "struct Delegation",
                  "name": "delegation",
                  "type": "tuple"
                },
                {
                  "internalType": "bytes",
                  "name": "signature",
                  "type": "bytes"
                }
              ],
              "internalType": "struct SignedDelegation[]",
              "name": "authority",
              "type": "tuple[]"
            }
          ],
          "internalType": "struct Invocation[]",
          "name": "_input",
          "type": "tuple[]"
        }
      ],
      "name": "GET_INVOCATION_ARRAY_PACKETHASH",
      "outputs": [
        {
          "internalType": "bytes32",
          "name": "",
          "type": "bytes32"
        }
      ],
      "stateMutability": "pure",
      "type": "function"
    },
    {
      "inputs": [
        {
          "components": [
            {
              "components": [
                {
                  "internalType": "address",
                  "name": "to",
                  "type": "address"
                },
                {
                  "internalType": "uint256",
                  "name": "gasLimit",
                  "type": "uint256"
                },
                {
                  "internalType": "bytes",
                  "name": "data",
                  "type": "bytes"
                }
              ],
              "internalType": "struct Transaction",
              "name": "transaction",
              "type": "tuple"
            },
            {
              "components": [
                {
                  "components": [
                    {
                      "internalType": "address",
                      "name": "delegate",
                      "type": "address"
                    },
                    {
                      "internalType": "bytes32",
                      "name": "authority",
                      "type": "bytes32"
                    },
                    {
                      "components": [
                        {
                          "internalType": "address",
                          "name": "enforcer",
                          "type": "address"
                        },
                        {
                          "internalType": "bytes",
                          "name": "terms",
                          "type": "bytes"
                        }
                      ],
                      "internalType": "struct Caveat[]",
                      "name": "caveats",
                      "type": "tuple[]"
                    }
                  ],
                  "internalType": "struct Delegation",
                  "name": "delegation",
                  "type": "tuple"
                },
                {
                  "internalType": "bytes",
                  "name": "signature",
                  "type": "bytes"
                }
              ],
              "internalType": "struct SignedDelegation[]",
              "name": "authority",
              "type": "tuple[]"
            }
          ],
          "internalType": "struct Invocation",
          "name": "_input",
          "type": "tuple"
        }
      ],
      "name": "GET_INVOCATION_PACKETHASH",
      "outputs": [
        {
          "internalType": "bytes32",
          "name": "",
          "type": "bytes32"
        }
      ],
      "stateMutability": "pure",
      "type": "function"
    },
    {
      "inputs": [
        {
          "components": [
            {
              "internalType": "uint256",
              "name": "nonce",
              "type": "uint256"
            },
            {
              "internalType": "uint256",
              "name": "queue",
              "type": "uint256"
            }
          ],
          "internalType": "struct ReplayProtection",
          "name": "_input",
          "type": "tuple"
        }
      ],
      "name": "GET_REPLAYPROTECTION_PACKETHASH",
      "outputs": [
        {
          "internalType": "bytes32",
          "name": "",
          "type": "bytes32"
        }
      ],
      "stateMutability": "pure",
      "type": "function"
    },
    {
      "inputs": [
        {
          "components": [
            {
              "components": [
                {
                  "internalType": "address",
                  "name": "delegate",
                  "type": "address"
                },
                {
                  "internalType": "bytes32",
                  "name": "authority",
                  "type": "bytes32"
                },
                {
                  "components": [
                    {
                      "internalType": "address",
                      "name": "enforcer",
                      "type": "address"
                    },
                    {
                      "internalType": "bytes",
                      "name": "terms",
                      "type": "bytes"
                    }
                  ],
                  "internalType": "struct Caveat[]",
                  "name": "caveats",
                  "type": "tuple[]"
                }
              ],
              "internalType": "struct Delegation",
              "name": "delegation",
              "type": "tuple"
            },
            {
              "internalType": "bytes",
              "name": "signature",
              "type": "bytes"
            }
          ],
          "internalType": "struct SignedDelegation[]",
          "name": "_input",
          "type": "tuple[]"
        }
      ],
      "name": "GET_SIGNEDDELEGATION_ARRAY_PACKETHASH",
      "outputs": [
        {
          "internalType": "bytes32",
          "name": "",
          "type": "bytes32"
        }
      ],
      "stateMutability": "pure",
      "type": "function"
    },
    {
      "inputs": [
        {
          "components": [
            {
              "components": [
                {
                  "internalType": "address",
                  "name": "delegate",
                  "type": "address"
                },
                {
                  "internalType": "bytes32",
                  "name": "authority",
                  "type": "bytes32"
                },
                {
                  "components": [
                    {
                      "internalType": "address",
                      "name": "enforcer",
                      "type": "address"
                    },
                    {
                      "internalType": "bytes",
                      "name": "terms",
                      "type": "bytes"
                    }
                  ],
                  "internalType": "struct Caveat[]",
                  "name": "caveats",
                  "type": "tuple[]"
                }
              ],
              "internalType": "struct Delegation",
              "name": "delegation",
              "type": "tuple"
            },
            {
              "internalType": "bytes",
              "name": "signature",
              "type": "bytes"
            }
          ],
          "internalType": "struct SignedDelegation",
          "name": "_input",
          "type": "tuple"
        }
      ],
      "name": "GET_SIGNEDDELEGATION_PACKETHASH",
      "outputs": [
        {
          "internalType": "bytes32",
          "name": "",
          "type": "bytes32"
        }
      ],
      "stateMutability": "pure",
      "type": "function"
    },
    {
      "inputs": [
        {
          "components": [
            {
              "internalType": "bytes",
              "name": "signature",
              "type": "bytes"
            },
            {
              "components": [
                {
                  "internalType": "bytes32",
                  "name": "delegationHash",
                  "type": "bytes32"
                }
              ],
              "internalType": "struct IntentionToRevoke",
              "name": "intentionToRevoke",
              "type": "tuple"
            }
          ],
          "internalType": "struct SignedIntentionToRevoke",
          "name": "_input",
          "type": "tuple"
        }
      ],
      "name": "GET_SIGNEDINTENTIONTOREVOKE_PACKETHASH",
      "outputs": [
        {
          "internalType": "bytes32",
          "name": "",
          "type": "bytes32"
        }
      ],
      "stateMutability": "pure",
      "type": "function"
    },
    {
      "inputs": [
        {
          "components": [
            {
              "components": [
                {
                  "components": [
                    {
                      "components": [
                        {
                          "internalType": "address",
                          "name": "to",
                          "type": "address"
                        },
                        {
                          "internalType": "uint256",
                          "name": "gasLimit",
                          "type": "uint256"
                        },
                        {
                          "internalType": "bytes",
                          "name": "data",
                          "type": "bytes"
                        }
                      ],
                      "internalType": "struct Transaction",
                      "name": "transaction",
                      "type": "tuple"
                    },
                    {
                      "components": [
                        {
                          "components": [
                            {
                              "internalType": "address",
                              "name": "delegate",
                              "type": "address"
                            },
                            {
                              "internalType": "bytes32",
                              "name": "authority",
                              "type": "bytes32"
                            },
                            {
                              "components": [
                                {
                                  "internalType": "address",
                                  "name": "enforcer",
                                  "type": "address"
                                },
                                {
                                  "internalType": "bytes",
                                  "name": "terms",
                                  "type": "bytes"
                                }
                              ],
                              "internalType": "struct Caveat[]",
                              "name": "caveats",
                              "type": "tuple[]"
                            }
                          ],
                          "internalType": "struct Delegation",
                          "name": "delegation",
                          "type": "tuple"
                        },
                        {
                          "internalType": "bytes",
                          "name": "signature",
                          "type": "bytes"
                        }
                      ],
                      "internalType": "struct SignedDelegation[]",
                      "name": "authority",
                      "type": "tuple[]"
                    }
                  ],
                  "internalType": "struct Invocation[]",
                  "name": "batch",
                  "type": "tuple[]"
                },
                {
                  "components": [
                    {
                      "internalType": "uint256",
                      "name": "nonce",
                      "type": "uint256"
                    },
                    {
                      "internalType": "uint256",
                      "name": "queue",
                      "type": "uint256"
                    }
                  ],
                  "internalType": "struct ReplayProtection",
                  "name": "replayProtection",
                  "type": "tuple"
                }
              ],
              "internalType": "struct Invocations",
              "name": "invocations",
              "type": "tuple"
            },
            {
              "internalType": "bytes",
              "name": "signature",
              "type": "bytes"
            }
          ],
          "internalType": "struct SignedInvocation",
          "name": "_input",
          "type": "tuple"
        }
      ],
      "name": "GET_SIGNEDINVOCATION_PACKETHASH",
      "outputs": [
        {
          "internalType": "bytes32",
          "name": "",
          "type": "bytes32"
        }
      ],
      "stateMutability": "pure",
      "type": "function"
    },
    {
      "inputs": [
        {
          "components": [
            {
              "internalType": "address",
              "name": "to",
              "type": "address"
            },
            {
              "internalType": "uint256",
              "name": "gasLimit",
              "type": "uint256"
            },
            {
              "internalType": "bytes",
              "name": "data",
              "type": "bytes"
            }
          ],
          "internalType": "struct Transaction",
          "name": "_input",
          "type": "tuple"
        }
      ],
      "name": "GET_TRANSACTION_PACKETHASH",
      "outputs": [
        {
          "internalType": "bytes32",
          "name": "",
          "type": "bytes32"
        }
      ],
      "stateMutability": "pure",
      "type": "function"
    },
    {
      "inputs": [
        {
          "internalType": "string",
          "name": "identifier",
          "type": "string"
        },
        {
          "internalType": "bool",
          "name": "isNominated",
          "type": "bool"
        }
      ],
      "name": "claimIfMember",
      "outputs": [],
      "stateMutability": "nonpayable",
      "type": "function"
    },
    {
      "inputs": [
        {
          "internalType": "string",
          "name": "identifier",
          "type": "string"
        },
        {
          "internalType": "bool",
          "name": "isAccused",
          "type": "bool"
        }
      ],
      "name": "claimIfPhisher",
      "outputs": [],
      "stateMutability": "nonpayable",
      "type": "function"
    },
    {
      "inputs": [
        {
          "components": [
            {
              "components": [
                {
                  "internalType": "address",
                  "name": "to",
                  "type": "address"
                },
                {
                  "internalType": "uint256",
                  "name": "gasLimit",
                  "type": "uint256"
                },
                {
                  "internalType": "bytes",
                  "name": "data",
                  "type": "bytes"
                }
              ],
              "internalType": "struct Transaction",
              "name": "transaction",
              "type": "tuple"
            },
            {
              "components": [
                {
                  "components": [
                    {
                      "internalType": "address",
                      "name": "delegate",
                      "type": "address"
                    },
                    {
                      "internalType": "bytes32",
                      "name": "authority",
                      "type": "bytes32"
                    },
                    {
                      "components": [
                        {
                          "internalType": "address",
                          "name": "enforcer",
                          "type": "address"
                        },
                        {
                          "internalType": "bytes",
                          "name": "terms",
                          "type": "bytes"
                        }
                      ],
                      "internalType": "struct Caveat[]",
                      "name": "caveats",
                      "type": "tuple[]"
                    }
                  ],
                  "internalType": "struct Delegation",
                  "name": "delegation",
                  "type": "tuple"
                },
                {
                  "internalType": "bytes",
                  "name": "signature",
                  "type": "bytes"
                }
              ],
              "internalType": "struct SignedDelegation[]",
              "name": "authority",
              "type": "tuple[]"
            }
          ],
          "internalType": "struct Invocation[]",
          "name": "batch",
          "type": "tuple[]"
        }
      ],
      "name": "contractInvoke",
      "outputs": [
        {
          "internalType": "bool",
          "name": "",
          "type": "bool"
        }
      ],
      "stateMutability": "nonpayable",
      "type": "function"
    },
    {
      "inputs": [],
      "name": "domainHash",
      "outputs": [
        {
          "internalType": "bytes32",
          "name": "",
          "type": "bytes32"
        }
      ],
      "stateMutability": "view",
      "type": "function"
    },
    {
      "inputs": [
        {
          "internalType": "bytes",
          "name": "terms",
          "type": "bytes"
        },
        {
          "components": [
            {
              "internalType": "address",
              "name": "to",
              "type": "address"
            },
            {
              "internalType": "uint256",
              "name": "gasLimit",
              "type": "uint256"
            },
            {
              "internalType": "bytes",
              "name": "data",
              "type": "bytes"
            }
          ],
          "internalType": "struct Transaction",
          "name": "transaction",
          "type": "tuple"
        },
        {
          "internalType": "bytes32",
          "name": "delegationHash",
          "type": "bytes32"
        }
      ],
      "name": "enforceCaveat",
      "outputs": [
        {
          "internalType": "bool",
          "name": "",
          "type": "bool"
        }
      ],
      "stateMutability": "view",
      "type": "function"
    },
    {
      "inputs": [
        {
          "components": [
            {
              "internalType": "address",
              "name": "delegate",
              "type": "address"
            },
            {
              "internalType": "bytes32",
              "name": "authority",
              "type": "bytes32"
            },
            {
              "components": [
                {
                  "internalType": "address",
                  "name": "enforcer",
                  "type": "address"
                },
                {
                  "internalType": "bytes",
                  "name": "terms",
                  "type": "bytes"
                }
              ],
              "internalType": "struct Caveat[]",
              "name": "caveats",
              "type": "tuple[]"
            }
          ],
          "internalType": "struct Delegation",
          "name": "delegation",
          "type": "tuple"
        }
      ],
      "name": "getDelegationTypedDataHash",
      "outputs": [
        {
          "internalType": "bytes32",
          "name": "",
          "type": "bytes32"
        }
      ],
      "stateMutability": "view",
      "type": "function"
    },
    {
      "inputs": [
        {
          "internalType": "string",
          "name": "contractName",
          "type": "string"
        },
        {
          "internalType": "string",
          "name": "version",
          "type": "string"
        },
        {
          "internalType": "uint256",
          "name": "chainId",
          "type": "uint256"
        },
        {
          "internalType": "address",
          "name": "verifyingContract",
          "type": "address"
        }
      ],
      "name": "getEIP712DomainHash",
      "outputs": [
        {
          "internalType": "bytes32",
          "name": "",
          "type": "bytes32"
        }
      ],
      "stateMutability": "pure",
      "type": "function"
    },
    {
      "inputs": [
        {
          "components": [
            {
              "internalType": "bytes32",
              "name": "delegationHash",
              "type": "bytes32"
            }
          ],
          "internalType": "struct IntentionToRevoke",
          "name": "intentionToRevoke",
          "type": "tuple"
        }
      ],
      "name": "getIntentionToRevokeTypedDataHash",
      "outputs": [
        {
          "internalType": "bytes32",
          "name": "",
          "type": "bytes32"
        }
      ],
      "stateMutability": "view",
      "type": "function"
    },
    {
      "inputs": [
        {
          "components": [
            {
              "components": [
                {
                  "components": [
                    {
                      "internalType": "address",
                      "name": "to",
                      "type": "address"
                    },
                    {
                      "internalType": "uint256",
                      "name": "gasLimit",
                      "type": "uint256"
                    },
                    {
                      "internalType": "bytes",
                      "name": "data",
                      "type": "bytes"
                    }
                  ],
                  "internalType": "struct Transaction",
                  "name": "transaction",
                  "type": "tuple"
                },
                {
                  "components": [
                    {
                      "components": [
                        {
                          "internalType": "address",
                          "name": "delegate",
                          "type": "address"
                        },
                        {
                          "internalType": "bytes32",
                          "name": "authority",
                          "type": "bytes32"
                        },
                        {
                          "components": [
                            {
                              "internalType": "address",
                              "name": "enforcer",
                              "type": "address"
                            },
                            {
                              "internalType": "bytes",
                              "name": "terms",
                              "type": "bytes"
                            }
                          ],
                          "internalType": "struct Caveat[]",
                          "name": "caveats",
                          "type": "tuple[]"
                        }
                      ],
                      "internalType": "struct Delegation",
                      "name": "delegation",
                      "type": "tuple"
                    },
                    {
                      "internalType": "bytes",
                      "name": "signature",
                      "type": "bytes"
                    }
                  ],
                  "internalType": "struct SignedDelegation[]",
                  "name": "authority",
                  "type": "tuple[]"
                }
              ],
              "internalType": "struct Invocation[]",
              "name": "batch",
              "type": "tuple[]"
            },
            {
              "components": [
                {
                  "internalType": "uint256",
                  "name": "nonce",
                  "type": "uint256"
                },
                {
                  "internalType": "uint256",
                  "name": "queue",
                  "type": "uint256"
                }
              ],
              "internalType": "struct ReplayProtection",
              "name": "replayProtection",
              "type": "tuple"
            }
          ],
          "internalType": "struct Invocations",
          "name": "invocations",
          "type": "tuple"
        }
      ],
      "name": "getInvocationsTypedDataHash",
      "outputs": [
        {
          "internalType": "bytes32",
          "name": "",
          "type": "bytes32"
        }
      ],
      "stateMutability": "view",
      "type": "function"
    },
    {
      "inputs": [
        {
          "components": [
            {
              "components": [
                {
                  "components": [
                    {
                      "components": [
                        {
                          "internalType": "address",
                          "name": "to",
                          "type": "address"
                        },
                        {
                          "internalType": "uint256",
                          "name": "gasLimit",
                          "type": "uint256"
                        },
                        {
                          "internalType": "bytes",
                          "name": "data",
                          "type": "bytes"
                        }
                      ],
                      "internalType": "struct Transaction",
                      "name": "transaction",
                      "type": "tuple"
                    },
                    {
                      "components": [
                        {
                          "components": [
                            {
                              "internalType": "address",
                              "name": "delegate",
                              "type": "address"
                            },
                            {
                              "internalType": "bytes32",
                              "name": "authority",
                              "type": "bytes32"
                            },
                            {
                              "components": [
                                {
                                  "internalType": "address",
                                  "name": "enforcer",
                                  "type": "address"
                                },
                                {
                                  "internalType": "bytes",
                                  "name": "terms",
                                  "type": "bytes"
                                }
                              ],
                              "internalType": "struct Caveat[]",
                              "name": "caveats",
                              "type": "tuple[]"
                            }
                          ],
                          "internalType": "struct Delegation",
                          "name": "delegation",
                          "type": "tuple"
                        },
                        {
                          "internalType": "bytes",
                          "name": "signature",
                          "type": "bytes"
                        }
                      ],
                      "internalType": "struct SignedDelegation[]",
                      "name": "authority",
                      "type": "tuple[]"
                    }
                  ],
                  "internalType": "struct Invocation[]",
                  "name": "batch",
                  "type": "tuple[]"
                },
                {
                  "components": [
                    {
                      "internalType": "uint256",
                      "name": "nonce",
                      "type": "uint256"
                    },
                    {
                      "internalType": "uint256",
                      "name": "queue",
                      "type": "uint256"
                    }
                  ],
                  "internalType": "struct ReplayProtection",
                  "name": "replayProtection",
                  "type": "tuple"
                }
              ],
              "internalType": "struct Invocations",
              "name": "invocations",
              "type": "tuple"
            },
            {
              "internalType": "bytes",
              "name": "signature",
              "type": "bytes"
            }
          ],
          "internalType": "struct SignedInvocation[]",
          "name": "signedInvocations",
          "type": "tuple[]"
        }
      ],
      "name": "invoke",
      "outputs": [
        {
          "internalType": "bool",
          "name": "success",
          "type": "bool"
        }
      ],
      "stateMutability": "nonpayable",
      "type": "function"
    },
    {
      "inputs": [
        {
          "internalType": "string",
          "name": "",
          "type": "string"
        }
      ],
      "name": "isMember",
      "outputs": [
        {
          "internalType": "bool",
          "name": "",
          "type": "bool"
        }
      ],
      "stateMutability": "view",
      "type": "function"
    },
    {
      "inputs": [
        {
          "internalType": "string",
          "name": "",
          "type": "string"
        }
      ],
      "name": "isPhisher",
      "outputs": [
        {
          "internalType": "bool",
          "name": "",
          "type": "bool"
        }
      ],
      "stateMutability": "view",
      "type": "function"
    },
    {
      "inputs": [
        {
          "internalType": "address",
          "name": "",
          "type": "address"
        },
        {
          "internalType": "uint256",
          "name": "",
          "type": "uint256"
        }
      ],
      "name": "multiNonce",
      "outputs": [
        {
          "internalType": "uint256",
          "name": "",
          "type": "uint256"
        }
      ],
      "stateMutability": "view",
      "type": "function"
    },
    {
      "inputs": [],
      "name": "owner",
      "outputs": [
        {
          "internalType": "address",
          "name": "",
          "type": "address"
        }
      ],
      "stateMutability": "view",
      "type": "function"
    },
    {
      "inputs": [],
      "name": "renounceOwnership",
      "outputs": [],
      "stateMutability": "nonpayable",
      "type": "function"
    },
    {
      "inputs": [
        {
          "components": [
            {
              "components": [
                {
                  "internalType": "address",
                  "name": "delegate",
                  "type": "address"
                },
                {
                  "internalType": "bytes32",
                  "name": "authority",
                  "type": "bytes32"
                },
                {
                  "components": [
                    {
                      "internalType": "address",
                      "name": "enforcer",
                      "type": "address"
                    },
                    {
                      "internalType": "bytes",
                      "name": "terms",
                      "type": "bytes"
                    }
                  ],
                  "internalType": "struct Caveat[]",
                  "name": "caveats",
                  "type": "tuple[]"
                }
              ],
              "internalType": "struct Delegation",
              "name": "delegation",
              "type": "tuple"
            },
            {
              "internalType": "bytes",
              "name": "signature",
              "type": "bytes"
            }
          ],
          "internalType": "struct SignedDelegation",
          "name": "signedDelegation",
          "type": "tuple"
        },
        {
          "components": [
            {
              "internalType": "bytes",
              "name": "signature",
              "type": "bytes"
            },
            {
              "components": [
                {
                  "internalType": "bytes32",
                  "name": "delegationHash",
                  "type": "bytes32"
                }
              ],
              "internalType": "struct IntentionToRevoke",
              "name": "intentionToRevoke",
              "type": "tuple"
            }
          ],
          "internalType": "struct SignedIntentionToRevoke",
          "name": "signedIntentionToRevoke",
          "type": "tuple"
        }
      ],
      "name": "revokeDelegation",
      "outputs": [],
      "stateMutability": "nonpayable",
      "type": "function"
    },
    {
      "inputs": [
        {
          "internalType": "address",
          "name": "newOwner",
          "type": "address"
        }
      ],
      "name": "transferOwnership",
      "outputs": [],
      "stateMutability": "nonpayable",
      "type": "function"
    },
    {
      "inputs": [
        {
          "components": [
            {
              "components": [
                {
                  "internalType": "address",
                  "name": "delegate",
                  "type": "address"
                },
                {
                  "internalType": "bytes32",
                  "name": "authority",
                  "type": "bytes32"
                },
                {
                  "components": [
                    {
                      "internalType": "address",
                      "name": "enforcer",
                      "type": "address"
                    },
                    {
                      "internalType": "bytes",
                      "name": "terms",
                      "type": "bytes"
                    }
                  ],
                  "internalType": "struct Caveat[]",
                  "name": "caveats",
                  "type": "tuple[]"
                }
              ],
              "internalType": "struct Delegation",
              "name": "delegation",
              "type": "tuple"
            },
            {
              "internalType": "bytes",
              "name": "signature",
              "type": "bytes"
            }
          ],
          "internalType": "struct SignedDelegation",
          "name": "signedDelegation",
          "type": "tuple"
        }
      ],
      "name": "verifyDelegationSignature",
      "outputs": [
        {
          "internalType": "address",
          "name": "",
          "type": "address"
        }
      ],
      "stateMutability": "view",
      "type": "function"
    },
    {
      "inputs": [
        {
          "components": [
            {
              "internalType": "bytes",
              "name": "signature",
              "type": "bytes"
            },
            {
              "components": [
                {
                  "internalType": "bytes32",
                  "name": "delegationHash",
                  "type": "bytes32"
                }
              ],
              "internalType": "struct IntentionToRevoke",
              "name": "intentionToRevoke",
              "type": "tuple"
            }
          ],
          "internalType": "struct SignedIntentionToRevoke",
          "name": "signedIntentionToRevoke",
          "type": "tuple"
        }
      ],
      "name": "verifyIntentionToRevokeSignature",
      "outputs": [
        {
          "internalType": "address",
          "name": "",
          "type": "address"
        }
      ],
      "stateMutability": "view",
      "type": "function"
    },
    {
      "inputs": [
        {
          "components": [
            {
              "components": [
                {
                  "components": [
                    {
                      "components": [
                        {
                          "internalType": "address",
                          "name": "to",
                          "type": "address"
                        },
                        {
                          "internalType": "uint256",
                          "name": "gasLimit",
                          "type": "uint256"
                        },
                        {
                          "internalType": "bytes",
                          "name": "data",
                          "type": "bytes"
                        }
                      ],
                      "internalType": "struct Transaction",
                      "name": "transaction",
                      "type": "tuple"
                    },
                    {
                      "components": [
                        {
                          "components": [
                            {
                              "internalType": "address",
                              "name": "delegate",
                              "type": "address"
                            },
                            {
                              "internalType": "bytes32",
                              "name": "authority",
                              "type": "bytes32"
                            },
                            {
                              "components": [
                                {
                                  "internalType": "address",
                                  "name": "enforcer",
                                  "type": "address"
                                },
                                {
                                  "internalType": "bytes",
                                  "name": "terms",
                                  "type": "bytes"
                                }
                              ],
                              "internalType": "struct Caveat[]",
                              "name": "caveats",
                              "type": "tuple[]"
                            }
                          ],
                          "internalType": "struct Delegation",
                          "name": "delegation",
                          "type": "tuple"
                        },
                        {
                          "internalType": "bytes",
                          "name": "signature",
                          "type": "bytes"
                        }
                      ],
                      "internalType": "struct SignedDelegation[]",
                      "name": "authority",
                      "type": "tuple[]"
                    }
                  ],
                  "internalType": "struct Invocation[]",
                  "name": "batch",
                  "type": "tuple[]"
                },
                {
                  "components": [
                    {
                      "internalType": "uint256",
                      "name": "nonce",
                      "type": "uint256"
                    },
                    {
                      "internalType": "uint256",
                      "name": "queue",
                      "type": "uint256"
                    }
                  ],
                  "internalType": "struct ReplayProtection",
                  "name": "replayProtection",
                  "type": "tuple"
                }
              ],
              "internalType": "struct Invocations",
              "name": "invocations",
              "type": "tuple"
            },
            {
              "internalType": "bytes",
              "name": "signature",
              "type": "bytes"
            }
          ],
          "internalType": "struct SignedInvocation",
          "name": "signedInvocation",
          "type": "tuple"
        }
      ],
      "name": "verifyInvocationSignature",
      "outputs": [
        {
          "internalType": "address",
          "name": "",
          "type": "address"
        }
      ],
      "stateMutability": "view",
      "type": "function"
    }
  ],
  "bytecode": "0x60a06040523480156200001157600080fd5b5060405162002b4638038062002b468339810160408190526200003491620001ab565b8080604051806040016040528060018152602001603160f81b8152506200006a62000064620000e760201b60201c565b62000145565b8151602080840191909120825182840120604080517f8b73c3c69bb8fe3d512ecc4cf759cc79239f7b179b0ffacaa9a75d522b39400f818601528082019390935260608301919091524660808301523060a0808401919091528151808403909101815260c090920190528051910120608052506200028792505050565b60003033036200013f57600080368080601f0160208091040260200160405190810160405280939291908181526020018383808284376000920191909152505050503601516001600160a01b03169150620001429050565b50335b90565b600080546001600160a01b038381166001600160a01b0319831681178455604051919092169283917f8be0079c531659141344cd1fd0a4f28419497f9722a3daafe3b4186f6b6457e09190a35050565b634e487b7160e01b600052604160045260246000fd5b60006020808385031215620001bf57600080fd5b82516001600160401b0380821115620001d757600080fd5b818501915085601f830112620001ec57600080fd5b81518181111562000201576200020162000195565b604051601f8201601f19908116603f011681019083821181831017156200022c576200022c62000195565b8160405282815288868487010111156200024557600080fd5b600093505b828410156200026957848401860151818501870152928501926200024a565b828411156200027b5760008684830101525b98975050505050505050565b60805161288e620002b86000396000818161056501528181610a7c01528181610ddd0152610ef3015261288e6000f3fe608060405234801561001057600080fd5b50600436106102065760003560e01c8063736f7ce71161011a57806398bc186a116100ad578063caced6c51161007c578063caced6c5146104b0578063d327c1eb146104c3578063d6d75cbf1461054d578063dfe86ac514610560578063f2fde38b1461058757600080fd5b806398bc186a14610464578063a2e01f7514610477578063a8444b3a1461048a578063bb5af5bd1461049d57600080fd5b80638a04499e116100e95780638a04499e146104025780638da5cb5b1461042d5780638dc34c4d1461043e57806397182ed61461045157600080fd5b8063736f7ce71461039b57806374e9d189146103ae5780637b577b58146103dc578063870eea55146103ef57600080fd5b80635cf1b24a1161019d5780636c2b12531161016c5780636c2b1253146103475780636f9658031461035a578063715018a61461036d5780637234eefe14610375578063732c36e81461038857600080fd5b80635cf1b24a146102e05780635d44b585146102f357806360b6d768146103215780636b6dc9de1461033457600080fd5b80633a481821116101d95780633a48182114610292578063463a3ce4146102a55780635068de4c146102ba5780635c6d9f0c146102cd57600080fd5b80630162f7221461020b57806308aaf6b0146102495780632f52a2fd1461025c5780632fad7efc1461026f575b600080fd5b61023661021936600461186c565b600160209081526000928352604080842090915290825290205481565b6040519081526020015b60405180910390f35b610236610257366004611a0f565b61059a565b61023661026a366004611b57565b61061a565b61028261027d366004611bd6565b610685565b6040519015158152602001610240565b6102366102a0366004611e2f565b61074c565b6102b86102b3366004611eb2565b6107c3565b005b6102826102c8366004611f08565b610898565b6102826102db366004611bd6565b610a04565b6102366102ee366004611f7d565b610a1a565b610282610301366004611fb1565b805160208183018101805160038252928201919093012091525460ff1681565b61023661032f36600461206e565b610a77565b6102b8610342366004611eb2565b610ac7565b6102366103553660046120a2565b610b8a565b6102366103683660046120d6565b610be7565b6102b8610c38565b61023661038336600461206e565b610c8d565b610236610396366004612181565b610ccb565b6102366103a93660046121b5565b610d08565b6102826103bc366004611fb1565b805160208183018101805160048252928201919093012091525460ff1681565b6102366103ea3660046121e9565b610d70565b6102366103fd36600461221d565b610dd8565b6104156104103660046120a2565b610e05565b6040516001600160a01b039091168152602001610240565b6000546001600160a01b0316610415565b6102b861044c366004612251565b610e2f565b61023661045f366004611b57565b610eee565b6102366104723660046122b4565b610f1b565b61023661048536600461235f565b610f67565b610415610498366004612181565b610fd3565b6102366104ab3660046123d2565b610ff7565b6104156104be3660046123d2565b611028565b6102366104d1366004612406565b8351602094850120835193850193909320604080517f8b73c3c69bb8fe3d512ecc4cf759cc79239f7b179b0ffacaa9a75d522b39400f8188015280820195909552606085019190915260808401929092526001600160a01b031660a0808401919091528151808403909101815260c09092019052805191012090565b61023661055b36600461221d565b611052565b6102367f000000000000000000000000000000000000000000000000000000000000000081565b6102b8610595366004612483565b611093565b6000807f80ad7e1b04ee6d994a125f4714ca0720908bd80ed16063ec8aee4b88e9253e2d83600001518460200151805190602001206040516020016105fb939291909283526001600160a01b03919091166020830152604082015260600190565b60408051601f1981840301815291905280516020909101209392505050565b6000807f409f5114779a253e700d775d7845e6efc1e83685ac59868d2df3d4de51c7d621836000015184602001516106558660400151610d70565b6040805160208101959095526001600160a01b03909316928401929092526060830152608082015260a0016105fb565b6000805b8281101561074557368484838181106106a4576106a461249e565b90506020028101906106b691906124b4565b905060006106c66104be836124d4565b9050610712818787868181106106de576106de61249e565b90506020028101906106f091906124b4565b6106fa90806124e0565b60200180360381019061070d91906120d6565b61114d565b61072f61071f83806124e0565b61072990806124f6565b83611217565b505050808061073d90612555565b915050610689565b5092915050565b6000606060005b83518110156107b4578161077f8583815181106107725761077261249e565b6020026020010151610a1a565b60405160200161079092919061259e565b604051602081830303815290604052915080806107ac90612555565b915050610753565b50805160209091012092915050565b6107cb61168e565b6001600160a01b03166107e66000546001600160a01b031690565b6001600160a01b0316146108155760405162461bcd60e51b815260040161080c906125c0565b60405180910390fd5b80600484846040516108289291906125f5565b908152604051908190036020018120805492151560ff199093169290921790915561085690849084906125f5565b6040519081900381208215158252907f88e1b1a43f3edcb9afe941dfea296f5bc32fab715b5fc9aa101ec26d87d2e8a2906020015b60405180910390a2505050565b60008181526002602052604081205460ff16156108f75760405162461bcd60e51b815260206004820152601b60248201527f44656c65676174696f6e20686173206265656e207265766f6b65640000000000604482015260640161080c565b60006109066040850185612605565b6109159160049160009161264b565b61091e91612675565b90506001600160e01b0319811663f2fde38b60e01b0361098c5760405162461bcd60e51b8152602060048201526024808201527f7472616e736665724f776e657273686970206973206e6f742064656c6567617460448201526361626c6560e01b606482015260840161080c565b6001600160e01b03198116630f374f3b60e31b036109f85760405162461bcd60e51b8152602060048201526024808201527f72656e6f756e63654f776e657273686970206973206e6f742064656c6567617460448201526361626c6560e01b606482015260840161080c565b50600195945050505050565b6000610a11838333611217565b90505b92915050565b6000807fd97dd99b404d177890f06a8f0fc8e5ed0333fb2ebb6684360709066e8984f594610a4b8460000151610f67565b610a588560200151610d08565b60408051602081019490945283019190915260608201526080016105fb565b6000807f0000000000000000000000000000000000000000000000000000000000000000610aa484610c8d565b60405161190160f01b6020820152602281019290925260428201526062016105fb565b610acf61168e565b6001600160a01b0316610aea6000546001600160a01b031690565b6001600160a01b031614610b105760405162461bcd60e51b815260040161080c906125c0565b8060038484604051610b239291906125f5565b908152604051908190036020018120805492151560ff1990931692909217909155610b5190849084906125f5565b6040519081900381208215158252907f9d3712f4978fc20b17a1dfbcd563f9aded75d05b6019427a9eca23245220138b9060200161088b565b6000807f3c36a06e1d288b0f94f565588317a46ad11bc3c96992109f9a2365a2737259a7610bbb846000015161061a565b6020808601518051908201206040516105fb949392019283526020830191909152604082015260600190565b6000807fe8d3d963b33868fb116316bc3fd55e8f49123f30e4418f71e140d54b7cd3b2b9836000015184602001516040516020016105fb939291909283526020830191909152604082015260600190565b610c4061168e565b6001600160a01b0316610c5b6000546001600160a01b031690565b6001600160a01b031614610c815760405162461bcd60e51b815260040161080c906125c0565b610c8b60006116ea565b565b6000807f08c69a206c06f5334b35ceb1186181a713b21aff02cf66285f375084fbef2eb8610cbe846000015161074c565b610a588560200151610be7565b6000807f1b0091a1d050ac3fa97e15af326cf512d740529b43d5750169acacda23de2788836000015180519060200120610a588560200151611052565b6000606060005b83518110156107b45781610d3b858381518110610d2e57610d2e61249e565b6020026020010151610b8a565b604051602001610d4c92919061259e565b60405160208183030381529060405291508080610d6890612555565b915050610d0f565b6000606060005b83518110156107b45781610da3858381518110610d9657610d9661249e565b602002602001015161059a565b604051602001610db492919061259e565b60405160208183030381529060405291508080610dd090612555565b915050610d77565b6000807f0000000000000000000000000000000000000000000000000000000000000000610aa484611052565b805160009081610e1482610eee565b90506000610e2682866020015161173a565b95945050505050565b6000610e3d610410846126a5565b90506000610e4d610498846126b1565b9050806001600160a01b0316826001600160a01b031614610ec05760405162461bcd60e51b815260206004820152602760248201527f4f6e6c7920746865207369676e65722063616e207265766f6b6520612064656c60448201526632b3b0ba34b7b760c91b606482015260840161080c565b6000610ece610355866126a5565b6000908152600260205260409020805460ff191660011790555050505050565b6000807f0000000000000000000000000000000000000000000000000000000000000000610aa48461061a565b6000807f8b73c3c69bb8fe3d512ecc4cf759cc79239f7b179b0ffacaa9a75d522b39400f83600001518460200151856040015186606001516040516020016105fb9594939291906126e9565b6000807fb16dfdb3b8fa033fe30ac976cd4a50ad256b6811c80d90fcd0b323eec190047d836000015184602001518560400151805190602001206040516020016105fb94939291909384526001600160a01b039290921660208401526040830152606082015260800190565b602081015160009081610fe582610dd8565b90506000610e2682866000015161173a565b6000807fc32b6dfe0f988d1f2b13248cddd88e320ff0ae86e3ccfe38bab77a80f4477d44610bbb8460000151610c8d565b6000806110388360000151610a77565b9050600061104a82856020015161173a565b949350505050565b805160405160009182916105fb917f7148a5140265154d6c5200f68c3b86caca80512f179c3903dffd45aeaefc8ea891602001918252602082015260400190565b61109b61168e565b6001600160a01b03166110b66000546001600160a01b031690565b6001600160a01b0316146110dc5760405162461bcd60e51b815260040161080c906125c0565b6001600160a01b0381166111415760405162461bcd60e51b815260206004820152602660248201527f4f776e61626c653a206e6577206f776e657220697320746865207a65726f206160448201526564647265737360d01b606482015260840161080c565b61114a816116ea565b50565b60208082015182516001600160a01b038516600090815260018085526040808320858452909552939020549192909161118591612737565b81146111ed5760405162461bcd60e51b815260206004820152603160248201527f4f6e652d61742d612d74696d65206f7264657220656e666f726365642e204e6f6044820152701b98d94c881a5cc81d1bdbc81cdb585b1b607a1b606482015260840161080c565b6001600160a01b039093166000908152600160209081526040808320938352929052209190915550565b6000805b838110156116865760008585838181106112375761123761249e565b905060200281019061124991906124b4565b6112529061274f565b905060008082602001515160000361126a5750849050805b6000805b84602001515181101561150a576000856020015182815181106112935761129361249e565b6020026020010151905060006112a882610e05565b9050826000036112b9578095508594505b846001600160a01b0316816001600160a01b0316146113335760405162461bcd60e51b815260206004820152603060248201527f44656c65676174696f6e207369676e657220646f6573206e6f74206d6174636860448201526f103932b8bab4b932b21039b4b3b732b960811b606482015260840161080c565b8151602081015185146113ae5760405162461bcd60e51b815260206004820152603760248201527f44656c65676174696f6e20617574686f7269747920646f6573206e6f74206d6160448201527f7463682070726576696f75732064656c65676174696f6e000000000000000000606482015260840161080c565b60006113b984610b8a565b905060005b8260400151518161ffff1610156114ed57600083604001518261ffff16815181106113eb576113eb61249e565b60200260200101516000015190506000816001600160a01b0316635068de4c86604001518561ffff16815181106114245761142461249e565b6020026020010151602001518e60000151876040518463ffffffff1660e01b81526004016114549392919061275b565b6020604051808303816000875af1158015611473573d6000803e3d6000fd5b505050506040513d601f19601f8201168201806040525081019061149791906127b7565b9050806114d85760405162461bcd60e51b815260206004820152600f60248201526e10d85d99585d081c995a9958dd1959608a1b604482015260640161080c565b505080806114e5906127db565b9150506113be565b50905195509350829150611502905081612555565b91505061126e565b50866001600160a01b0316826001600160a01b03161461156c5760405162461bcd60e51b815260206004820181905260248201527f44656c6567617461626c65436f72653a696e76616c69642d64656c6567617465604482015260640161080c565b835180516001600160a01b031630146115c75760405162461bcd60e51b815260206004820181905260248201527f496e766f636174696f6e2074617267657420646f6573206e6f74206d61746368604482015260640161080c565b6040516001600160a01b0385811682528916907f185d11175440fcb6458fbc1889b02953452539ed80ad1da781a5449500f6d9609060200160405180910390a261161f81600001518260400151836020015187611811565b96508661166e5760405162461bcd60e51b815260206004820152601a60248201527f44656c656761746f7220657865637574696f6e206661696c6564000000000000604482015260640161080c565b5050505050808061167e90612555565b91505061121b565b509392505050565b60003033036116e457600080368080601f0160208091040260200160405190810160405280939291908181526020018383808284376000920191909152505050503601516001600160a01b031691506116e79050565b50335b90565b600080546001600160a01b038381166001600160a01b0319831681178455604051919092169283917f8be0079c531659141344cd1fd0a4f28419497f9722a3daafe3b4186f6b6457e09190a35050565b60008060008084516041146117555760009350505050610a14565b50505060208201516040830151606084015160001a601b8110156117815761177e601b826127fc565b90505b8060ff16601b1415801561179957508060ff16601c14155b156117aa5760009350505050610a14565b60408051600081526020810180835288905260ff831691810191909152606081018490526080810183905260019060a0016020604051602081039080840390855afa1580156117fd573d6000803e3d6000fd5b505050602060405103519350505050610a14565b6000808483604051602001611827929190612821565b604051602081830303815290604052905060008082516020840160008a89f19695505050505050565b80356001600160a01b038116811461186757600080fd5b919050565b6000806040838503121561187f57600080fd5b61188883611850565b946020939093013593505050565b634e487b7160e01b600052604160045260246000fd5b604080519081016001600160401b03811182821017156118ce576118ce611896565b60405290565b604051606081016001600160401b03811182821017156118ce576118ce611896565b604051608081016001600160401b03811182821017156118ce576118ce611896565b604051601f8201601f191681016001600160401b038111828210171561194057611940611896565b604052919050565b600082601f83011261195957600080fd5b81356001600160401b0381111561197257611972611896565b611985601f8201601f1916602001611918565b81815284602083860101111561199a57600080fd5b816020850160208301376000918101602001919091529392505050565b6000604082840312156119c957600080fd5b6119d16118ac565b90506119dc82611850565b815260208201356001600160401b038111156119f757600080fd5b611a0384828501611948565b60208301525092915050565b600060208284031215611a2157600080fd5b81356001600160401b03811115611a3757600080fd5b61104a848285016119b7565b60006001600160401b03821115611a5c57611a5c611896565b5060051b60200190565b600082601f830112611a7757600080fd5b81356020611a8c611a8783611a43565b611918565b82815260059290921b84018101918181019086841115611aab57600080fd5b8286015b84811015611aea5780356001600160401b03811115611ace5760008081fd5b611adc8986838b01016119b7565b845250918301918301611aaf565b509695505050505050565b600060608284031215611b0757600080fd5b611b0f6118d4565b9050611b1a82611850565b81526020820135602082015260408201356001600160401b03811115611b3f57600080fd5b611b4b84828501611a66565b60408301525092915050565b600060208284031215611b6957600080fd5b81356001600160401b03811115611b7f57600080fd5b61104a84828501611af5565b60008083601f840112611b9d57600080fd5b5081356001600160401b03811115611bb457600080fd5b6020830191508360208260051b8501011115611bcf57600080fd5b9250929050565b60008060208385031215611be957600080fd5b82356001600160401b03811115611bff57600080fd5b611c0b85828601611b8b565b90969095509350505050565b600060608284031215611c2957600080fd5b611c316118d4565b9050611c3c82611850565b81526020820135602082015260408201356001600160401b03811115611c6157600080fd5b611b4b84828501611948565b600060408284031215611c7f57600080fd5b611c876118ac565b905081356001600160401b0380821115611ca057600080fd5b611cac85838601611af5565b83526020840135915080821115611cc257600080fd5b50611a0384828501611948565b600082601f830112611ce057600080fd5b81356020611cf0611a8783611a43565b82815260059290921b84018101918181019086841115611d0f57600080fd5b8286015b84811015611aea5780356001600160401b03811115611d325760008081fd5b611d408986838b0101611c6d565b845250918301918301611d13565b600060408284031215611d6057600080fd5b611d686118ac565b905081356001600160401b0380821115611d8157600080fd5b611d8d85838601611c17565b83526020840135915080821115611da357600080fd5b50611a0384828501611ccf565b600082601f830112611dc157600080fd5b81356020611dd1611a8783611a43565b82815260059290921b84018101918181019086841115611df057600080fd5b8286015b84811015611aea5780356001600160401b03811115611e135760008081fd5b611e218986838b0101611d4e565b845250918301918301611df4565b600060208284031215611e4157600080fd5b81356001600160401b03811115611e5757600080fd5b61104a84828501611db0565b60008083601f840112611e7557600080fd5b5081356001600160401b03811115611e8c57600080fd5b602083019150836020828501011115611bcf57600080fd5b801515811461114a57600080fd5b600080600060408486031215611ec757600080fd5b83356001600160401b03811115611edd57600080fd5b611ee986828701611e63565b9094509250506020840135611efd81611ea4565b809150509250925092565b60008060008060608587031215611f1e57600080fd5b84356001600160401b0380821115611f3557600080fd5b611f4188838901611e63565b90965094506020870135915080821115611f5a57600080fd5b50850160608188031215611f6d57600080fd5b9396929550929360400135925050565b600060208284031215611f8f57600080fd5b81356001600160401b03811115611fa557600080fd5b61104a84828501611d4e565b600060208284031215611fc357600080fd5b81356001600160401b03811115611fd957600080fd5b61104a84828501611948565b600060408284031215611ff757600080fd5b611fff6118ac565b9050813581526020820135602082015292915050565b60006060828403121561202757600080fd5b61202f6118ac565b905081356001600160401b0381111561204757600080fd5b61205384828501611db0565b8252506120638360208401611fe5565b602082015292915050565b60006020828403121561208057600080fd5b81356001600160401b0381111561209657600080fd5b61104a84828501612015565b6000602082840312156120b457600080fd5b81356001600160401b038111156120ca57600080fd5b61104a84828501611c6d565b6000604082840312156120e857600080fd5b610a118383611fe5565b60006020828403121561210457600080fd5b604051602081018181106001600160401b038211171561212657612126611896565b6040529135825250919050565b60006040828403121561214557600080fd5b61214d6118ac565b905081356001600160401b0381111561216557600080fd5b61217184828501611948565b82525061206383602084016120f2565b60006020828403121561219357600080fd5b81356001600160401b038111156121a957600080fd5b61104a84828501612133565b6000602082840312156121c757600080fd5b81356001600160401b038111156121dd57600080fd5b61104a84828501611ccf565b6000602082840312156121fb57600080fd5b81356001600160401b0381111561221157600080fd5b61104a84828501611a66565b60006020828403121561222f57600080fd5b610a1183836120f2565b60006040828403121561224b57600080fd5b50919050565b6000806040838503121561226457600080fd5b82356001600160401b038082111561227b57600080fd5b61228786838701612239565b9350602085013591508082111561229d57600080fd5b506122aa85828601612239565b9150509250929050565b6000602082840312156122c657600080fd5b81356001600160401b03808211156122dd57600080fd5b90830190608082860312156122f157600080fd5b6122f96118f6565b82358281111561230857600080fd5b61231487828601611948565b82525060208301358281111561232957600080fd5b61233587828601611948565b6020830152506040830135604082015261235160608401611850565b606082015295945050505050565b60006020828403121561237157600080fd5b81356001600160401b0381111561238757600080fd5b61104a84828501611c17565b6000604082840312156123a557600080fd5b6123ad6118ac565b905081356001600160401b03808211156123c657600080fd5b611cac85838601612015565b6000602082840312156123e457600080fd5b81356001600160401b038111156123fa57600080fd5b61104a84828501612393565b6000806000806080858703121561241c57600080fd5b84356001600160401b038082111561243357600080fd5b61243f88838901611948565b9550602087013591508082111561245557600080fd5b5061246287828801611948565b9350506040850135915061247860608601611850565b905092959194509250565b60006020828403121561249557600080fd5b610a1182611850565b634e487b7160e01b600052603260045260246000fd5b60008235603e198336030181126124ca57600080fd5b9190910192915050565b6000610a143683612393565b60008235605e198336030181126124ca57600080fd5b6000808335601e1984360301811261250d57600080fd5b8301803591506001600160401b0382111561252757600080fd5b6020019150600581901b3603821315611bcf57600080fd5b634e487b7160e01b600052601160045260246000fd5b6000600182016125675761256761253f565b5060010190565b60005b83811015612589578181015183820152602001612571565b83811115612598576000848401525b50505050565b600083516125b081846020880161256e565b9190910191825250602001919050565b6020808252818101527f4f776e61626c653a2063616c6c6572206973206e6f7420746865206f776e6572604082015260600190565b8183823760009101908152919050565b6000808335601e1984360301811261261c57600080fd5b8301803591506001600160401b0382111561263657600080fd5b602001915036819003821315611bcf57600080fd5b6000808585111561265b57600080fd5b8386111561266857600080fd5b5050820193919092039150565b6001600160e01b0319813581811691600485101561269d5780818660040360031b1b83161692505b505092915050565b6000610a143683611c6d565b6000610a143683612133565b600081518084526126d581602086016020860161256e565b601f01601f19169290920160200192915050565b85815260a06020820152600061270260a08301876126bd565b828103604084015261271481876126bd565b606084019590955250506001600160a01b03919091166080909101529392505050565b6000821982111561274a5761274a61253f565b500190565b6000610a143683611d4e565b60608152600061276e60608301866126bd565b828103602084015260018060a01b038551168152602085015160208201526040850151606060408301526127a560608301826126bd565b92505050826040830152949350505050565b6000602082840312156127c957600080fd5b81516127d481611ea4565b9392505050565b600061ffff8083168181036127f2576127f261253f565b6001019392505050565b600060ff821660ff84168060ff038211156128195761281961253f565b019392505050565b6000835161283381846020880161256e565b60609390931b6bffffffffffffffffffffffff1916919092019081526014019291505056fea26469706673582212209f78e40ba716da13a7149338eb314650c6043153a14e4ffef44107ba52092ee264736f6c634300080d0033",
  "linkReferences": {},
  "deployedLinkReferences": {}
}